:020000040800F2
:10000000409B0120C10100081D04000815040008E0
:1000100019040008F3030008F904000800000000B8
:10002000000000000000000000000000250400089F
:10003000F70300080000000021040008290400085C
:10004000DB010008DB010008DB010008DB01000820
:10005000DB010008DB010008DB010008DB01000810
:10006000DB010008DB010008DB010008DB01000800
:10007000DB010008DB010008DB010008DB010008F0
:10008000DB010008DB010008DB010008DB010008E0
:10009000DB010008DB010008DB010008DB010008D0
:1000A000DB010008DB010008DB010008DB010008C0
:1000B000DB010008DB010008DB010008DB010008B0
:1000C000DB010008DB010008DB010008DB010008A0
:1000D000DB010008DB010008DB010008DB01000890
:1000E000FB030008DB010008DB010008DB0100085E
:1000F000DB010008DB010008DB010008DB01000870
:10010000DB010008DB010008DB010008DB0100085F
:10011000DB010008DB010008DB010008DB0100084F
:10012000DB010008DB010008DB010008DB0100083F
:10013000DB010008DB010008DB010008DB0100082F
:10014000DB010008DB010008DB010008DB0100081F
:10015000DB010008DB010008DB010008DB0100080F
:10016000DB010008DB010008DB010008DB010008FF
:10017000DB010008DB010008DB01000800000000D3
:10018000DB010008DB010008DB010008DB010008DF
:10019000DB010008DB010008DB01000800000000B3
:1001A000DB010008DB010008DB010008DFF80CD0F0
:1001B00000F0E2F80048004735530008409B01205A
:1001C0000648804706480047FEE7FEE7FEE7FEE7F1
:1001D000FEE7FEE7FEE7FEE7FEE7FEE73104000884
:1001E000AD0100082DE9F05F0546002092469B46D0
:1001F00088460646814640241BE02846414647463D
:10020000224600F0A8F853465A46C01A914110D32E
:1002100011461846224600F08FF82D1A67EB0108A8
:100220004F4622460120002100F086F817EB000916
:100230004E41201EA4F10104DFDC484631462A4627
:100240004346BDE8F09F00000048704754AE0008E8
:10025000A0F14101192900D8203070470649074A0A
:100260000868504343F23902104408604008704760
:1002700001490860704700005C0100206D4EC641D6
:1002800010B5431A934209D28318881803E010F876
:10029000011D03F8011D521EF9D210BD40EA0103F1
:1002A0009B0703D009E008C9121F08C0042AFAD22C
:1002B00003E011F8013B00F8013B521EF9D210BDDA
:1002C000D2B201E000F8012B491EFBD27047002298
:1002D000F6E710B513460A4604461946FFF7F0FF45
:1002E000204610BD421C10F8011B0029FBD1801ACA
:1002F000704730B504460020034600E05B1C934283
:1003000003D2E05CCD5C401BF8D030BD30B50B466D
:10031000014600202022012409E021FA02F59D4235
:1003200005D303FA02F5491B04FA02F52844151E09
:10033000A2F10102F1DC30BD202A04DB203A00FAF0
:1003400002F1002070479140C2F1200320FA03F32C
:10035000194390407047202A04DB203A21FA02F02A
:100360000021704721FA02F3D040C2F120029140EF
:100370000843194670470000064C074D06E0E06848
:1003800040F0010394E8070098471034AC42F6D3DC
:10039000FFF710FFD0AE0008F0AE000870B58C1863
:1003A00010F8015B15F0070301D110F8013B2A1189
:1003B00006D110F8012B03E010F8016B01F8016B76
:1003C0005B1EF9D12B0705D40023521E0DD401F872
:1003D000013BFAE710F8013BCB1A921C03E013F83B
:1003E000015B01F8015B521EF9D5A142D8D3002070
:1003F00070BD00BFFEE700BFFEE710B54FF4005030
:1004000003F00CFD28B14FF4005003F001FD06F09D
:100410003DFB10BD00BFFEE700BFFEE700BFFEE7EB
:1004200000BFFEE700BFFEE710B509F0E5FD10BD17
:1004300008B52D48006840F470002B4908602B482F
:10044000006840F001002949086028480830006829
:1004500040F080002549083108600020009002E04B
:100460000098401C00904CF2503100988842F7D31D
:100470001E480830006840F090001C4908310860B0
:100480000020009002E00098401C00904CF2503197
:1004900000988842F7D315480830006820F0030020
:1004A00012490831086011480068114908400F4995
:1004B00008600846006820F48020086000200B498E
:1004C0000831086000BF0948083000680020002893
:1004D000F9D108480549091D0860002003490C317D
:1004E000086006F065F908BD88ED00E000380240BC
:1004F000FFFFF6FE1030002400BFFEE70FB4054BEF
:1005000010B503A9044A029800F018F810BC5DF871
:1005100014FB0000353E00086001002002E008C81E
:10052000121F08C1002AFAD170477047002001E06D
:1005300001C1121F002AFBD1704700002DE9FF4FB7
:100540008BB088460546002606E025280BD0DDE95D
:100550000D1290476D1C761C28780028F5D10FB03D
:100560003046BDE8F08F0024A146A2460122AE49E4
:1005700000E0044315F8013F203B02FA03F0084273
:10058000F7D128782A2810D06FF02F022878A0F110
:100590003001092915D809EB890102EB410144F02A
:1005A000020400EB01096D1CF0E758F8041B5FEA38
:1005B000010903D544F40054C9F1000944F00204D0
:1005C0006D1C28782E2817D115F8010F44F004046B
:1005D0002A280ED06FF02F022878A0F130010929C7
:1005E0000AD80AEB8A0102EB410100EB010A6D1CFB
:1005F000F2E758F804AB6D1C28786C280FD006DCA5
:100600004C2817D068280DD06A2814D104E074282B
:1006100010D07A280FD10DE044F400140AE044F41D
:10062000801401E044F440146978814202D104F559
:1006300080146D1C6D1C2878692865D006DC0028A4
:100640008DD0632827D0642806D15DE06E2808D0BD
:1006500073282AD0752877D0DDE90D129047761CD3
:10066000E0E0C4F30250022809D003280DD0D8F8E6
:10067000001004280DD00E6008F10408D2E0D8F86C
:100680000010F217C1E90062F6E7D8F800100E80FA
:10069000F2E70E70F0E718F8041B8DF80010002048
:1006A0008DF80100EB46012003E058F804BB4FF041
:1006B000FF3061074FF0000701D40AE07F1C574567
:1006C0000DDA8742FADB1BF807100029F6D106E0A5
:1006D0007F1C8742FCDB1BF807100029F8D1DDE9FD
:1006E0000D23A9EB07008146214600F0B1F8304404
:1006F000C61904E0DDE90D121BF8010B90477F1EBF
:10070000F8D22146484688E058F8040BC4F3025159
:100710004FF00A0B032900D100B2042900D140B2E6
:10072000002802DA40422D2102E0210505D52B21C7
:100730008DF82410012104E006E0E10710D020210B
:10074000F6E708AF089113E058F8040BC4F3025120
:100750004FF00A0B032900D180B2042900D1C0B2A6
:100760000021EEE75946FFF7D1FD303107F8011DB2
:100770000028F7D1ADEB070000F1200B600702D590
:1007800024F4803401E04FF0010ADA4502DDAAEBDF
:100790000B0000E00020824600EB0B0108980144AA
:1007A000A9EB01000A90E00306D4DDE90D23214600
:1007B0000A9800F04DF806444FF0000908E009A936
:1007C00011F80900DDE90D12904709F10109761CC5
:1007D00008998945F3DBE0030CD5DDE90D232146BB
:1007E0000A9800F035F8064404E0DDE90D123020E7
:1007F0009047761CBAF10001AAF1010AF5DC05E088
:10080000DDE90D1217F8010B9047761CBBF10001D2
:10081000ABF1010BF4DC0A982146DDE90D2300F071
:1008200005F806446D1C97E6092801002DE9F04102
:10083000044600251E461746880404D405E03946C0
:100840002020B0476D1C641EF9D52846BDE8F08114
:100850002DE9F041044600251E469046C80301D507
:10086000302700E02027880404D505E041463846BB
:10087000B0476D1C641EF9D52846BDE8F08170B5FF
:1008800005460E4600BF05B970BD00BF6C6A4CB18D
:100890006079082806D13068E169884202D128468B
:1008A00000F06CF900BFEFE77CB5064600BF06B963
:1008B0007CBD00BF746A00BF04B9F9E700BF002027
:1008C0006082A06A401C70B1A06A1E303C21B0FB5F
:1008D000F1F5B5F5803F01D34FF6FF75A582A08AEB
:1008E00008B90120A082E06A401C80B1E06A1E3095
:1008F0003C21B0FBF1F5B5F5803F01D34FF6FF7514
:100900006581608908B9012060816089E081206B80
:10091000401C80B1206B1E303C21B0FBF1F5B5F5D9
:10092000803F01D34FF6FF75A581A08908B901204A
:10093000A081A08920826089A189884204DBA089E6
:10094000002801DD00206081E07910B1206A01906B
:100950000FE0207F7F2802DCFF21019108E0C02802
:1009600003DB6FF07F41019102E04FF6FF710191CF
:1009700000BF606A0090009848B900BFE069019923
:100980000840009000BF009840F0807000900A215D
:10099000204600F0E1FF6B4601AA04F11C0130463D
:1009A00005F014F800BF83E72DE9F04105466C6AB5
:1009B0000821204600F0D0FF002204F11C01284647
:1009C00002F01AFF0746A079FF2802DAA079401C3E
:1009D000A0714FF4FA7606F2F310314690FBF1F075
:1009E0002081BDE8F081000070B51848056829E055
:1009F0006C6A34B3607920B3A08A68B1608A401C05
:100A000080B26082A18A884206D1284600F010FE9A
:100A1000284600F0A9FF14E0208A40B1218A481E30
:100A20002082012903D1284601F020F809E0E0895D
:100A300038B1E189481EE081012902D1284600F041
:100A4000F4FF2D68002DD3D170BD0000EC00002014
:100A50002DE9F05F07460D4616469A4600BF17B9C6
:100A60000020BDE8F09F00BF00BF0DB90020F8E7EF
:100A700000BF4FF420724FF49A71362005F0C8F889
:100A80008146B9F1000F01D10020EAE700BF00BFA5
:100A9000032E02D16879032808D1A87918B9FFF785
:100AA000DDFB28490860274800682860D9F8044021
:100AB0004FF49A712046FFF70AFC01202070607005
:100AC00097F83000A070286804F062FB6060082E80
:100AD0000BD0042E09D0072E07D0032E07D168793A
:100AE000052802D06879042801D17868E0604FF0C9
:100AF00000080BE007F12A0010F8081004F11C00B0
:100B000000F8081008F101001FFA80F8B8F1060F8C
:100B1000F0D30D48C4F8EC000123352204F1F001B4
:100B2000002000F0DDF98346324604F1F00158461A
:100B300000F0E2F98346BAF1000F01D0AAF800B044
:100B400048468EE7440000206382536310B500BF1F
:100B500000BF08480078401E064908700846007823
:100B600030B90548006809F05FFE002002490860BE
:100B700010BD0000400000203C0000202DE9FE4F89
:100B80000646746A0C21204600F0E6FE02AB042201
:100B900021463046FFF75CFF054665B3D5F8048073
:100BA0000423322208F1F001BDF8080000F098F9A2
:100BB0000290E06904F0ECFA8246524608F1F00136
:100BC000BDF8080000F0A0F902902A4608F1F001F3
:100BD000BDF8080000F0BEF911484323114A294628
:100BE000CDE900601048006809F0C9FE07462846B4
:100BF00005F0CBF901E04FF0FF37A079FF2802DACA
:100C0000A079401CA07142F2107909F2F3104FF460
:100C1000FA7190FBF1F020813846BDE8FE8F0000AC
:100C2000A8AC0008ACAC00083C0000202DE9FE4F49
:100C300007467C6A4FF0000A0020E061062120464A
:100C400000F08AFE02AB012221463846FFF700FF82
:100C50000546002D42D06E680223392206F1F001CC
:100C6000BDF8080000F03CF902903A8D06F1F00161
:100C7000BDF8080000F061F902900423372206F164
:100C8000F001BDF8080000F02BF90290D0460DE00D
:100C9000224810F8082006F1F001BDF8080000F025
:100CA0002BF9029008F1010000F0FF08B8F1040FE1
:100CB000EED32A4606F1F001BDF8080000F04AF92B
:100CC00017484323174A2946CDE9007016480068A3
:100CD00009F055FE284605F058F900BFA079FF2815
:100CE00002DAA079401CA071A079062803DAA17964
:100CF0000120884000E03C2000EB4001C1EBC01027
:100D00004FF6FF7101EAC00909F2F3104FF4FA71CE
:100D100090FBF1F020815046BDE8FE8F38000020A6
:100D2000A8AC0008ACAC00083C00002070B50C4832
:100D3000056812E06C6A7CB12089012803DD2089F6
:100D4000401E208108E02089012805D12089401E0D
:100D50002081284600F0AEFE2D68002DEAD170BD3E
:100D6000EC000020F8B506460F46746A00202062A9
:100D700060622648C07810B12548C068A062234848
:100D8000007918B122480069E06202E0A06A4008D8
:100D9000E0621E48407918B11D484069206304E0B4
:100DA000A06AC0EBC000C00820633869E061174842
:100DB000807938B11649886904F0EAF92062012087
:100DC000E07101E00020E0711048C07920B11049C5
:100DD000C86904F0DDF9606200250DE005F1080145
:100DE0000B4A52F8210004F0D3F9009069462846D6
:100DF00001F094FB681CC5B2022D05DA05F108006C
:100E00000249085C0028E9D1F8BD0000AC4600208A
:100E10008446002070B50446656A0C21284600F01F
:100E20009BFD054B1A461146204604F0CFFD204697
:100E3000FFF7FCFE70BD0000A8AC000870B50546C9
:100E40000E466C6A0748807858B100202081064918
:100E5000886804F09DF9A0613069E061284600F0DF
:100E6000C3FC70BDAC4600208446002010B5184875
:100E7000007828BB00BF00BF09F072FA154908606E
:100E80000846006810B94FF0FF3010BD11480068E7
:100E9000407A40F020000F490968487244220E4908
:100EA0000C48006809F0B0F843220B490948006873
:100EB00009F0FAF8002209490648006809F0ACFC7C
:100EC00003480078401C024908700020DDE700005C
:100ED000400000203C000020A8AC000809150008D4
:100EE00030B500BF00BF0446451CA8B20A550446F1
:100EF000451CA8B20B5530BD10B500BF00BF03465E
:100F0000441CA0B2CA5410BD30B500BF00BF150EBE
:100F10000346441CA0B2CD54C2F307450346441C0B
:100F2000A0B2CD54C2F307250346441CA0B2CD5451
:100F30000346441CA0B2CA5430BD30B500BF00BF48
:100F4000150A0346441CA0B2CD540346441CA0B26B
:100F5000CA5430BD70B504460D461646FF222046E1
:100F6000611C8CB22A5404E000222046611C8CB221
:100F70002A54442C02D304F0030008B1442CF3D3C8
:100F800004F1F00081B2304605F082F870BD000037
:100F90002DE9F04F8BB081460020079006900A2182
:100FA000D448FFF794F9B9F80A002C2804D26FF05E
:100FB00001000BB0BDE8F08FD9F8040005904FF0A8
:100FC000F00AB9F80800089000BF4C460AE06089B2
:100FD000AAEB00001FFA80FA61890898401A80B2D3
:100FE0000890246814B160895045F0DD14B96FF0A1
:100FF0000100DEE756460898099060680A9043E1D0
:101000000A98805D049000274FF0FF38B01C1FFA4B
:1010100080FBB34501DAB81ECBE76189701C8142C1
:1010200003DD711C0A98455C07E0206818B1206850
:101030004068007800E0002005462F4604983428D8
:1010400054D00BDC032820D003DC80B101286FD101
:1010500011E0062824D033286AD13DE0352857D046
:1010600036285FD03A2868D03B287AD16FE000203C
:101070000546074679E000BF042D02D06FF0050059
:1010800097E700BF4FF006086FE0042700BFBD429E
:1010900002DA6FF005008CE700BF4FF0070864E04C
:1010A00000BFE91705EB91718910A5EB810111B122
:1010B0006FF005007DE700BF082D01DA284600E04B
:1010C0000820074600BFBD4202DA6FF0050070E756
:1010D00000BF4FF0080848E000BF042D02D06FF0B9
:1010E000050066E700BF4FF003083EE000BF012D9A
:1010F00002D06FF005005CE700BF00BFBAF1F00F4F
:1011000002D06FF0050054E700BF4FF000082CE05C
:1011100000BF012D02D06FF005004AE700BF4FF07D
:10112000010822E000BF042D03D06FF0050040E766
:1011300017E000BF4FF0020817E000BF042D02D0F7
:101140006FF0050035E700BF4FF004080DE000BF69
:10115000042D02D06FF005002BE700BF4FF005080B
:1011600003E0002700BF00BF00BF00BF049810B914
:10117000701C86B26CE07019801CB0F5803F02DBF9
:101180006FF0010015E77019801C86B2002F5FDD3B
:101190000020039000BF00BF00BF564810F80800B1
:1011A000B0BB042F01DA384600E0042002905B4611
:1011B00003A92046029A04F0A8FE01460298814243
:1011C00002D06FF00100F4E6042F27DD00BFF9170D
:1011D00007EB91718910A7EB810111B16FF0050048
:1011E000E7E600BF0120434901F80800039803F037
:1011F000CFFF414941F82800381FC7B20BF1040066
:1012000080B201900198584503DA6FF00100D0E6F2
:101210001DE0DDF804B008F10108BCE7042F04D19B
:10122000039803F0B5FF039009E000BF012F02D03F
:101230006FF00500BDE600BF9DF80C000390012093
:101240002C4901F808002C49039841F8280000BFF8
:101250006089B04217DC6089301A86B261890998CA
:10126000401A80B209900998864209DA246800BFC2
:1012700014B96FF005009CE600BF60680A9002E0B8
:101280006FF0010095E600BF3CB10998864204DA90
:101290000A98805DFF287FF4B3AE16480078A0B1AD
:1012A000154908680021134A1170012802D1012153
:1012B000079109E0022802D10121069104E00328E8
:1012C00002D101210691079100BF079830B100209B
:1012D00007904FF06C0AEC20089076E6069830B143
:1012E000002006904FF02C0A6C2008906DE600203C
:1012F0005FE60000AC460020844600202DE9FC4754
:1013000007467C6A0421204600F026FB01AB03223D
:1013100021463846FFF79CFB0546002D42D06E68FB
:101320000223392206F1F001BDF80400FFF7D8FDD1
:1013300001903A8D06F1F001BDF80400FFF7FDFDC4
:1013400001900423372206F1F001BDF80400FFF7F5
:10135000C7FD01904FF000080DE0224810F808206A
:1013600006F1F001BDF80400FFF7C6FD019008F199
:10137000010000F0FF08B8F1040FEED32A4606F191
:10138000F001BDF80400FFF7E5FD4323164A2946A6
:1013900016480097006809F0B5FA8146284604F01F
:1013A000F4FD01E04FF0FF39A079FF2802DAA079BF
:1013B000401CA071A0790A2805DAA0794FF47A714F
:1013C00010FB01F001E042F210701FFA80FA0AF2FD
:1013D000F3104FF4FA7190FBF1F020814846BDE81C
:1013E000FC87000038000020ACAC00083C00002066
:1013F0002DE9FC5F8046D8F824400321204600F008
:10140000ABFA01AB032221464046FFF721FB06461B
:10141000002E54D075680223392205F1F001BDF881
:101420000400FFF75DFD01904FF4107205F1F0012B
:10143000BDF80400FFF781FD01900423322205F17D
:10144000F001BDF80400FFF74BFD0190E06903F0E7
:101450009FFE83465A4605F1F001BDF80400FFF7F0
:1014600053FD01900423372205F1F001BDF804007B
:10147000FFF736FD019000270AE02048C25D05F124
:10148000F001BDF80400FFF737FD0190781CC7B2EA
:10149000042FF2D3324605F1F001BDF80400FFF746
:1014A00059FD4323164A31461648CDF8008000689E
:1014B00009F028FA8146304604F067FD01E04FF05C
:1014C000FF39A079FF2802DAA079401CA071A07929
:1014D0000A2805DAA0794FF47A7110FB01F001E0D7
:1014E00042F210701FFA80FA0AF2F3104FF4FA7108
:1014F00090FBF1F020814846BDE8FC9F38000020B9
:10150000ACAC00083C0000202DE9F05F1646DDF889
:1015100028B0444847687C6AD6F804900CB120791A
:1015200000B97AE000BF00BF70892C2800DA74E0AF
:1015300099F80000022800D06FE000250AE007F1CA
:101540002A00415D09F11C00405D814200D064E049
:10155000681CC5B297F83000A84201DD062DEED315
:10156000D9F8040003F014FE2168884200D054E04A
:1015700021463046FFF70CFD00B14EE02A48407886
:1015800000B94AE0D6F804A0284890F80480B8F1E1
:10159000050F24D16079012810D151463846FFF754
:1015A000E1FB97F8310000F0080018B13846FFF76A
:1015B000FBF931E03846FFF777F92DE06079032831
:1015C00005D06079042802D06079052824D15146DD
:1015D0003846FFF7C7FB3846FFF766F91CE0B8F15D
:1015E000060F0FD16079032808D06079012805D053
:1015F0006079042802D06079052803D13846FFF7C6
:1016000009FC09E0B8F1020F06D16079062803D180
:1016100051463846FFF712FC00BF304604F0B5FCD7
:10162000BDE8F09F284C0020AC46002084460020F6
:101630002DE9FE430646746A0CB9BDE8FE83607965
:1016400000B9FAE7A06902900020A061E061206281
:1016500060622063E062A062A08260822082E081FA
:10166000304600F0CEF988B301AB07222146304660
:10167000FFF7EEF9054645B36F680423362207F1FC
:10168000F001BDF80400FFF72BFC0190029803F075
:101690007FFD8046424607F1F001BDF80400FFF7E8
:1016A00033FC01902A4607F1F001BDF80400FFF772
:1016B00051FC432302AA29460D480096006809F010
:1016C00021F9284604F061FC00BF00BF094B1A460F
:1016D0001146304604F07AF90021204600F03CF92A
:1016E000207918B1FFF732FA0020207100BFA4E77B
:1016F0003C000020A8AC00082DE9FC4707467C6AA6
:101700000521204600F028F901AB03222146384686
:10171000FFF79EF90546002D43D06E68022339225B
:1017200006F1F001BDF80400FFF7DAFB01903A8DF5
:1017300006F1F001BDF80400FFF7FFFB0190042360
:10174000372206F1F001BDF80400FFF7C9FB019054
:101750004FF000080DE0224810F8082006F1F001D3
:10176000BDF80400FFF7C8FB019008F1010000F08C
:10177000FF08B8F1040FEED32A4606F1F001BDF8D8
:101780000400FFF7E7FB432304F11802294615483C
:101790000097006809F0B6F88146284604F0F5FB8A
:1017A00001E04FF0FF39A079FF2802DAA079401C50
:1017B000A071A0790A2805DAA0794FF4FA6110FB2C
:1017C00001F001E044F620601FFA80FA0AF2F310FB
:1017D0004FF4FA7190FBF1F020814846BDE8FC8798
:1017E000380000203C0000202DE9FE4F074600BFD6
:1017F0001FB96FF00F00BDE8FE8F00BF7C6A00BF0D
:1018000014B96FF00500F6E700BF0121204600F093
:10181000A3F802AB032221463846FFF719F9064622
:10182000002E6FD075680223392205F1F001BDF852
:101830000800FFF755FB02903A8D05F1F001BDF865
:101840000800FFF77AFB02900423322205F1F00131
:10185000BDF80800FFF744FB0290E06903F098FC34
:1018600083465A4605F1F001BDF80800FFF74CFB2E
:1018700002900423362205F1F001BDF80800FFF7BD
:101880002FFB0290A06903F083FC83465A4605F1C2
:10189000F001BDF80800FFF737FB02900423372260
:1018A00005F1F001BDF80800FFF71AFB02904FF0B8
:1018B00000080DE0244810F8082005F1F001BDF8FB
:1018C0000800FFF719FB029008F1010000F0FF0883
:1018D000B8F1040FEED3324605F1F001BDF808006F
:1018E000FFF738FB19484323194A3146CDE9007008
:1018F0001848006809F043F88146304604F045FB7B
:1019000002E0FFE74FF0FF39A079FF2802DAA07963
:10191000401CA071A079062803DAA1790120884033
:1019200000E03C2000EB4001C1EBC0104FF6FF711E
:1019300001EAC00A0AF2F3104FF4FA7190FBF1F0D9
:101940002081484657E7000038000020A8AC000876
:10195000ACAC00083C00002042798A4203D04171BF
:10196000002282710281704770B5044600BF14B92D
:101970006FF00F0070BD00BF00BF94F8310000F0A1
:10198000010010B96FF00F00F4E700BF656A208D09
:10199000B0F5107F02DA4FF0FF30EBE74DB934209D
:1019A00003F098FD054615B94FF0FF30E2E7656298
:1019B00003E0287908B1FFF7C9F834212846FEF77B
:1019C00086FCFFF753FA10B14FF0FF30D2E7012049
:1019D000287194F83100C0F3800028B9022128460C
:1019E000FFF7BAFF0020C5E72046FFF71FF90646BC
:1019F0002EB12046FFF71CFE4FF0FF30BAE730460D
:101A0000B8E7014679B1486A68B14A6A50790A284C
:101A100005D05079052802D05079042801D1012041
:101A200070470020FCE70020FAE770B505466C6AB5
:101A30006079012805D060790A2802D060790528EC
:101A400013D12846FFF758FEA189628A881A00EB55
:101A5000D0710122B2EB610F07DCA189628A881A7A
:101A600000EBD071C1F34F01E18170BD70B5054647
:101A70006C6A6079012808D060790A2805D06079FD
:101A8000052802D06079042813D12846FFF736FCD8
:101A9000A18A628A881A00EBD0710122B2EB610F31
:101AA00007DCA18A628A881A00EBD071C1F34F016A
:101AB000218270BD70B505466C6A60790C2802D031
:101AC0006079062803D12846FFF7B0F82BE060794B
:101AD00001280DD1A079052803DC2846FFF784FEF4
:101AE00021E02846FFF7A4FD2846FFF73DFF1AE056
:101AF000607908280AD1A079012803DC2846FEF77E
:101B000053FF10E02846FEF7CFFE0CE06079032873
:101B100009D1A079022803DA2846FFF769FC02E020
:101B20002846FFF783F870BD70B5002406E0194819
:101B300050F8240000B903E0601CC4B2042CF6DBAA
:101B400000BF042C0CDA00F029F8124941F82400F7
:101B5000084650F8240018B10F480470204670BDA4
:101B600000240D480078401CC5B20EE0042D00DBB7
:101B70000025084850F8250018B107480570284688
:101B8000EDE7601CC4B2681CC5B2042CEEDB042077
:101B9000E5E70000A84700205400002070B52E2083
:101BA00008F0ECFB05460DB9002070BD00BFFEF744
:101BB00055FB86B2B6F5806F06DB32460C492846E7
:101BC00008F022FA044601E06FF0070404F108006F
:101BD0000028ECD024B1284608F026FE0020E4E7D7
:101BE00000220449284608F017FE2846DDE70000D9
:101BF000A8AC0008C92100080146002051B1CA7AEA
:101C0000521C022A06DACA7A521C034B53F82220CD
:101C100002B1012070470000580000202DE9F0417A
:101C200005460E46002428E004EB44003A4951F8EA
:101C3000200000B304EB440001EB8000007AA842CE
:101C400019D104EB4401344F07EB81014A6805EBDD
:101C50000511324F07EB011101F1100004EB4401B3
:101C60002D4F57F8213031469847002004EB4401AE
:101C70003A4642F82100601CC4B2042CD4DB002494
:101C800021E0AC4200D11CE004EB0410234901EB3D
:101C90000010807A022813D104EB041001EB00102D
:101CA000C07B05EB05111D4A02EB0111C97B88427F
:101CB00006D1042005EB051102EB0111C87304E005
:101CC00000BF601CC4B2042CDBDB00BF05EB0510B9
:101CD000124901EB0010C07B04281BDA05EB05114B
:101CE0000E4A02EB0111C97B0D4A52F8210008F09F
:101CF0009BFD002005EB0511084A02EB0111C97B91
:101D0000074A42F82100042005EB0511034A02EBC3
:101D10000111C873BDE8F081F84B0020B8470020DE
:101D2000A847002010B5002404E0204600F006F883
:101D3000601CC4B2042CF8DB10BD000070B5064670
:101D400006EB0610294901EB001400BF00BFA07A82
:101D5000002845D0012804D0022812D0032840D101
:101D600035E000F0C1F820810220A0720020E0726E
:101D70000120207300206073304600F023FB0546ED
:101D800032E0207B401EC0B22073F8B9607B401C5B
:101D9000C0B26073042812D12046FFF72DFF38B17E
:101DA000E07A401CE072012020730020607308E09C
:101DB00000213046FFF732FF0020A07214E0607B64
:101DC0002073304600F0FEFA054600BF0CE02068A4
:101DD00018B12068401E206008B90020A07203E0FE
:101DE00002E000BF00BF00BF00BF70BDB8470020C9
:101DF0002DE9F04706460F469046444600BF21466F
:101E0000384604F04BFA0546002D03DB4FF6FF7011
:101E1000844203D14FF6FF70BDE8F087601C84B2A6
:101E200005F0C000C02802D14FF6FF70F4E721E0B2
:101E30002146384604F032FA8146B9F1000F02DA41
:101E40004FF6FF70E8E73078FEF702FA824609F0B5
:101E5000FF00FEF7FDF9824502D04FF6FF70DBE789
:101E60004FF6FF70844200D1D6E7601C84B2761C26
:101E70006D1E00BF002DDBDC761C2146384604F0C9
:101E80000DFA0546002D02DA4FF6FF70C4E7002D6B
:101E9000B5D14FF6FF70844200D1BDE7601C80B21F
:101EA000BAE7000070B505460E4605EB05100C4973
:101EB00001EB00140320A07226600A4920688842C2
:101EC00001D908462060211D2846FFF7A7FE20689B
:101ED00020B9A07A032801D10020A07270BD0000B3
:101EE000B8470020803A090070B500BFFEF7B6F988
:101EF00085B2002411E004EB04100A4901EB001044
:101F0000807A022807D104EB041001EB001000894D
:101F1000A84200D1EAE7601CC4B2042CEBDB2846DF
:101F200070BD0000B84700202DE9FF4F83B08B46FD
:101F300091469A460025002436E004EB04105B49E4
:101F400001EB0010807A02282CD104EB04100A4621
:101F500002EB001000F110014FF48072039803F0BF
:101F6000C8F9F8B900261BE006EB4600504951F8C5
:101F7000200098B906EB460041F8209006EB460099
:101F800001EB8000C0F804A006EB460001EB8000E6
:101F900004726FF0040007B0BDE8F08F701CC6B289
:101FA000042EE1DB601CC4B2042CC6DB00200290CE
:101FB0004FF00408002417E004EB04103B4901EB48
:101FC0000015A87A00B911E0A87A03280AD1A97BE4
:101FD000384A1278511AC8B20299884201DD02903B
:101FE000A04600BF601CC4B2042CE5DB00BF042C7B
:101FF00013D1B8F1040F07DA08EB08102B4901EBF5
:102000000010807A032802D04FF0FF30C3E7444627
:1020100004EB0410254901EB0015002700260CE015
:1020200006EB4600224951F8200020B906EB460095
:1020300001EB800703E0701CC6B2042EF0DB00BF8A
:1020400017B94FF0FF30A6E73C720120A87219487B
:102050000078A873C7F80090C7F804A0BBF1FF0F81
:1020600001D2584600E0FF20019005F11000019ACE
:102070000399FEF705F9002205F1100101980A54B1
:10208000FFF752FDE873E87B042804DB0020A87208
:102090003860401E7FE707480078401C05490870FB
:1020A0002046FFF74BFE6FF0040074E7B8470020AE
:1020B000F84B002055000020F8B504460D461646A2
:1020C0001F4600203B46324629460090204600F03D
:1020D00001F8F8BD2DE9F04705460E46174698462B
:1020E000DDF8209016B10DB1287818B96FF00F0007
:1020F000BDE8F0872846FEF7F5F80446FF2C02D924
:102100006FF00F00F4E73146284602F0DFFC08B11B
:102110000020EDE73146284600F028F808B90020F5
:10212000E6E70648006810B96FF00500E0E74346AF
:102130003A4621462846FFF7F7FED9E75800002027
:1021400008B5094800906946002000F0E7F94FF013
:10215000723000906946012000F0E0F900BF00BF36
:1021600000BF00BF08BD0000DF05050570B50646CD
:102170000D46002421E004EB0410124901EB00108D
:10218000807A032817D104EB04100A4602EB0010F2
:1021900000F110014FF48072304603F0AAF850B9F4
:1021A00000BF35B104EB0410064901EB0010406894
:1021B0002860002070BD601CC4B2042CDBDB6FF013
:1021C0000F00F7E7B84700202DE9F04F89B0174618
:1021D0009A463889102800DAEBE000230C2206A981
:1021E000384603F092FE0C2873D1BDF8180002F0B7
:1021F000DCFF81460025D8E005EB05106F4901EBB7
:102200000016B07A02286ED130894845FBD1BDF85E
:102210001C0002F0CAFF8346BDF81E0002F0C5FF95
:1022200080469DF81A0000F0800000B9C1E0BBF1C3
:10223000010F00D0BDE0F17A614A52F82110DAF8BE
:102240000000884200D0B4E00C22394606F11000AC
:10225000FFF7CEFD04464FF6FF718C4200D1A8E097
:102260002346042202A9384603F04FFE042800D07A
:102270009FE0BDF80A00B0F5807F05D100BFBDF832
:102280000800B0F5807F00D093E0201DB0F5803FBE
:1022900000DB8EE0201D84B29DF81B0000F00F00D3
:1022A00060B13046FFF7A8FC00286DD003207073A2
:1022B000012030732846FFF741FD7AE05EE02146B9
:1022C000384600F03DF904464FF6FF70844201D1D4
:1022D0006FE06DE023460A2203A9384603F015FE9D
:1022E0000A2801D065E05EE004F10A00B0F5803F05
:1022F00000DB5EE004F10A0084B2BDF80E00B0F528
:10230000807F28D1BDF80C00B0F5807F22D1BDF8C8
:102310001400B0F5806F1DD12346042201A9384670
:1023200003F0F3FD042800D043E005EB0511234A38
:1023300002EB011101984860384603F026FE04982C
:1023400002F026FF014600902846FFF7ABFD09B0DA
:10235000BDE8F08F00BFBDF8140002F026FF204456
:10236000B0F5803F00DB24E0BDF8140002F01DFF53
:10237000204484B2A8F101001FFA80F8B8F1000FE0
:1023800002DD3889A0429ADC384603F0FEFD0021C8
:102390002846FFF743FC002005EB0511074A02EB36
:1023A00001118872D3E7681CC5B2042DFFF624AF73
:1023B00000BF384603F0E9FD00BFC8E7B84700207A
:1023C000580000202DE9F04F89B083460BEB0B102D
:1023D0004F4901EB001600BF00BFF07A4D4951F89C
:1023E000200040B900215846FFF718FC0020B072C9
:1023F00009B0BDE8F08F06F11000FDF773FF123051
:1024000080B24FF4207201460290362003F000FCA7
:102410000746002F71D00020069007900890308961
:1024200002F0C3FEADF8180001208DF81A0000027A
:10243000ADF81C000C2206A9384603F0B2FE06F1E6
:102440001004641E0C2500BF641CA0464FF0000958
:1024500004E009F1010000F0FF09641C20782E2837
:1024600002D020780028F4D1A4EB080080B20490B8
:1024700005EB0900401CB0F5803F00DB41E04A4617
:102480002946384603F0EFFD681C83B241463846C2
:10249000049A03F0C6FE05EB0900401C85B22078C3
:1024A0000028D1D100222946384603F0DCFD681C03
:1024B00085B24FF48070ADF81400ADF816002B46CD
:1024C000042205A9384603F0ACFEF17B03913520C8
:1024D0000190F07A0F4901EB800002900E4A0399B7
:1024E00052F821003946DDE9013208F0DBF9824675
:1024F000384603F04AFD02E0FFE74FF0FF3A50464E
:1025000076E7384603F041FD6FF0050070E7000004
:10251000B847002058000020A847002002280ADA07
:1025200021B1054A0B6842F8203004E0024A034B0F
:102530001B6842F82030704758000020A8AC000803
:102540002DE9F04106460F463C4600BF2146621C7D
:1025500094B2304603F0A2FE0546002D00DB1CB904
:102560004FF6FF70BDE8F08105F0C000C02800D133
:1025700014E060193189884202DB4FF6FF70F1E701
:10258000601984B22146304603F088FE0546002DCE
:1025900002DA4FF6FF70E5E7002DD7D100BF4FF606
:1025A000FF70844200D1DDE7601C80B2DAE710B52D
:1025B000FFF7B8FB10BD0A4600BF00BF1146836895
:1025C0001B680B6083681960704702469068016859
:1025D00031B108689368186000BF00BF08467047B3
:1025E0000020FCE700201C4908681C49084000BF87
:1025F000194908600021184A51609160D160114664
:1026000088694FF64171084040F0800011468861AA
:102610000021D1611146C96B41F40271D1631049A7
:102620000968104A11430C4AC2F80C111146D1F83E
:10263000101141F40311C2F810110B4988690B49BC
:10264000084040F008700849886108680849084057
:102650000848054908607047008002400F8130FD3E
:102660000C8102406000020000900240233FDEF82F
:102670007D0000F80060C10210B540F2194003F07F
:1026800031FF40F2194003F01BFF00F01FFC10BDAA
:1026900008B500210091009002E00099491E0091C8
:1026A00000990029F9D108BD02464FF0FF300629F4
:1026B00027D2DFE801F022200B03071E9388C3F323
:1026C0000C001FE05368C3F30C401BE01368C3F316
:1026D0000D4004280BD9001F0B4B1B6803F000733F
:1026E00033B1137803F0200313B1001D00E0002084
:1026F00008E0906806E0906804E01378C3F3C30034
:1027000000E000BF00BF7047008002402DE9F043A9
:10271000044600210025002600278C46B4F5E00F72
:102720000FD12348234B052540F2F4564FF4801770
:10273000DFF88480C8F81000DFF88080C8F8000057
:102740000FE01F481F4B052540F2F456EF0744F2F7
:10275000F45CDFF86480C8F80C00DFF86C80C8F81F
:1027600000004FF00008DFF86490C9F80080DFF83F
:102770006090C9F80080002115E000EB011217609D
:10278000C2F804C001FB0638C2F80880A5F10108B0
:10279000884506D900EB011808F11008C2F80C8032
:1027A00000E0D060491CA942E7D3BDE8F0830000F7
:1027B000700A00208428002000900240240000209D
:1027C000200A0020C00A002028000020300000203D
:1027D0002C00002000B500F09FFD00F085FC00BD3E
:1027E00030B503460C4600210022384800680068D6
:1027F00000F0004008B1002030BD002B34D0334839
:102800000068008800F4004060BB30480068008821
:1028100000F4807030B32D480068008800F4007028
:1028200000B32A4800680068C0F30D42121F284810
:10283000006800F0007030B124480068007800F0B3
:10284000200000B1121DA24201D90020D4E70021CE
:1028500005E01E4800688068405C5854491C91425D
:10286000F7D301E00020C7E74FF00040174D2D6877
:1028700028601848406900F0800020B18020154D84
:1028800068610020A86011480068808800F48040DA
:1028900028B10E480068C0680C4D286014E00B4851
:1028A0000068808800F4004020B10A48C068074DE5
:1028B000286009E007480068C0F384050348006801
:1028C00010302844014D2860012095E728000020A1
:1028D000008002400090024070B5034600222F485D
:1028E0000068006800F0004008B1002070BD40F2B0
:1028F000F450814201D90020F8E74BB1002205E0F5
:10290000985C264E3668B668B054521C8A42F7D39B
:1029100022480068416021480068006840F040504B
:102920001E4E366830601D480068006840F0004068
:102930001A4E366830601A48406900F0040518489D
:10294000406900F0200405B92CB145EA0400144E9A
:1029500070610020706011480068006800F4801009
:1029600028B10E480068C0680C4E306014E00B4877
:102970000068006800F4001020B109480069074EA3
:10298000306009E006480068C0F384060348006828
:1029900010303044014E30600120A7E724000020B1
:1029A0000090024010B54FF4406003F077FD40F610
:1029B000014003F073FD40F6024003F06FFD40F666
:1029C000034003F06BFD40F6064003F067FD40F660
:1029D000074003F063FD40F6084003F05FFD4FF44D
:1029E000807200215D4801F0D3FA4FF48073002219
:1029F00002215A4801F0FBFA4FF4807303220021B0
:102A0000564801F01BFB41F20E1003F047FD4FF456
:102A1000000003F0EDFD0223002219464F4801F0AB
:102A2000E6FA0223032200214C4801F007FB0423AD
:102A300000220221494801F0DAFA0423032200218E
:102A4000464801F0FBFA802300220221434801F0AE
:102A5000CEFA802303220021404801F0EFFA02223F
:102A60000B213E4801F094FA04220B213B4801F06F
:102A70008FFA80220B21394801F08AFA4FF4006363
:102A800000220221364801F0B2FA4FF4006303221B
:102A90000021334801F0D2FA4FF480530022022182
:102AA0002F4801F0A4FA4FF48053032200212C4850
:102AB00001F0C4FA4FF4005300220221284801F02B
:102AC00096FA4FF4005303220021254801F0B6FA8C
:102AD0004FF400620B21224801F05AFA4FF4805261
:102AE0000B211F4801F054FA4FF400520B211C48EF
:102AF00001F04EFA0223002219461A4801F077FA33
:102B0000022303220021174801F098FA1023002223
:102B10000221144801F06BFA10230322002111480E
:102B200001F08CFA2023002202210E4801F05FFA06
:102B30002023032200210B4801F080FA02220B21FE
:102B4000084801F025FA10220B21064801F020FA6E
:102B500020220B21034801F01BFA10BD00000240A7
:102B600000040240000802402DE9F74F82B0814680
:102B70008A460024002500260027A0460020019058
:102B80008346009000F0F0F948B9C548FFF780FD92
:102B900000F0EAF918B9009805B0BDE8F08FFFF72A
:102BA00021FD4F46012F5CD100BF01AB0122114630
:102BB000002000F045FABDF8040000F00400019088
:102BC00008F10108BDF8040010B9B6488045ECD3FF
:102BD000B448804501D10098DEE74FF000084FF47B
:102BE0008050019001AB00220121022000F028FA60
:102BF0008346BBF1000F01D10098CDE700BF01ABC8
:102C000001221146002000F01BFABDF8040000F07C
:102C10002000019008F10108BDF8040010B9A14896
:102C20008045ECD39F48804501D10098B4E74FF030
:102C3000000801AB10220121002000F001FABDF8CC
:102C4000040000F0040010B14FF4006700E000271A
:102C5000BDF8040000F0020000B11DE047F4804719
:102C60001AE007F40060C008019007F48040BDF846
:102C7000041041EA5000019001AB00220121022022
:102C800000F0DEF98346BBF1000F01D1009883E725
:102C90006FF07F40FFF7FCFC8348046824F4B044E5
:102CA0003C4304600AF4806070B17F48006840F4DF
:102CB00080607D4908607D48846924F080640AF062
:102CC00080600443794884617748406804990843E8
:102CD000754948607648007800F00100A8B1744852
:102CE0004568084604682E4672480440C0430640C2
:102CF0003443084604606D4884692E4624F0C004BD
:102D000006F4407644EA960484616948007800F04D
:102D1000020040B16648866864480468664804401A
:102D20003443624804606248007800F0040040B117
:102D30005F48C6685D4804686048044034435B48A7
:102D400004605B48007800F0080048B15848066904
:102D5000564804684CF202008443344353480460EC
:102D60005348007800F0100040B1514846694F4880
:102D700084695348044034434C4884614C4800788B
:102D800000F0200098B14A488569484884692E4679
:102D90004C480440C04306403443444884610468BE
:102DA0002E4624F0800406F0800634430460404838
:102DB000007800F0400038B13D48C5693A48C46920
:102DC0006FF310042C43C4613948007800F0800090
:102DD000C0B13748056A344884692E464FF64170C1
:102DE000044086433443304884613048803004686E
:102DF0002E4624F0770406F4EE4644EA16242B48C7
:102E0000C0F880402A48008800F4807018B1284833
:102E1000406A254988602648008800F4007018B18F
:102E20002348806A2049C8602148008800F48060F7
:102E300048B11F48C56A1C48446840F2DE708443AC
:102E40002C43194844601A48008800F4006040B1DF
:102E50001748056B144804681B4804402C4312486B
:102E600004601348008800F4805038B11048456B66
:102E70000D48046824F440042C4304600C48008886
:102E800000F4005038B10A48856B0748046824F400
:102E900060242C4304600120009000987CE6000030
:102EA000FFFF8F00FFFF04000080024000900240FF
:102EB000484600207FFFFFFDFFFFFEF8FFC001FF37
:102EC000E73FDEFDFBFFFFFE8FDDFEFF0020084930
:102ED000086048608860C860086148618861C861AE
:102EE000086248628862C862086348638863704702
:102EF000484600200A794B7942EA0322084B0344F2
:102F00001A64CA7812068B7842EA03424B7842EA86
:102F100003220B781A43024B03445A6470470000A3
:102F20000080024010B5002440F6194003F0B6FAC4
:102F300040F61A4003F0B2FA40F61B4003F0AEFA36
:102F4000FFF79AFB00F084F904460CB900BFFEE7D6
:102F500000224FF480610120FFF706FE014908605E
:102F600010BD000008000020F8B500262C480569B7
:102F700025F01C05012003F0FFF90446294884428E
:102F800005D32948844202D245F0080526E02648A8
:102F9000844205D32548844202D245F00C051DE049
:102FA0002248844203D32248844200D216E02048BB
:102FB000844205D31F48844202D245F004050DE047
:102FC0001C48844202D31C48844202D31A488442DB
:102FD00002D145F0100501E03046F8BD104805610A
:102FE0004FF4004000906B4600220121022000F0C7
:102FF00027F808B93046F0E71048FFF749FB6B4661
:1030000000220121104600F01BF808B93046E4E721
:10301000BDF8000000F4004000B901263046DCE7AE
:1030200000800240002D3101C00E1602008793037C
:1030300000E1F50580D1F008001C4E0EFFFF0400F2
:103040002DE9F04104460D4600270020DFF884C03A
:10305000DCF810104FF6C37C21EA0C014FF4F86C39
:103060000CEA821C4CEA040C4FF4784808EAC528A4
:103070004CEA080C4CF0010C4CEA0101022C05D181
:10308000B3F800C0DFF84C80C8F814C0DFF844C0C3
:10309000CCF8101000BFDFF83CC0DCF810C00CF01A
:1030A00001067F1C1EB1DFF830C06745F3D1DFF8A1
:1030B00024C0DCF810C00CF0010CBCF1000F00D1F2
:1030C00001202CB9DFF80CC0DCF814C0A3F800C054
:1030D000BDE8F08100800240FFFF0400416821F05C
:1030E00000414160704700000648006840F004005D
:1030F000044908600448806940F002000249886180
:103100007047000000800240009002404FF00040F5
:1031100026490968086025480068808800F48040D6
:10312000E8B123480068A0B121480068C0681F4981
:1031300008601F480068006828B11D4800680068E2
:103140001B49086030E01A480068103018490860D0
:103150002AE016480068C0681449086024E0134853
:103160000068808800F4004060B11248C0680F49D0
:1031700008600F480068B8B10D48006800680C4945
:10318000086011E00B480068C0F38401074800683C
:1031900010300844054908600548006820B104481B
:1031A00000681030024908607047000028000020C5
:1031B000300000200090024000B500232148006844
:1031C000026802F0004008B1002000BD02F4004097
:1031D00028B902F4807010B102F4007018B9FFF73A
:1031E00095FF0120F1E702F0200030B102F001006C
:1031F00018B1FFF78BFF0120E7E702F00040A8B904
:1032000002F4004090B902F4807078B102F40070CA
:1032100060B1C2F30D431B1F0B48006800F0007043
:1032200068B102F0200050B11B1D08E0074800689B
:10323000401C06490860FFF769FF0120C5E71846F2
:10324000C3E7000028000020008002403400002076
:1032500010B5002100200B4B1B6843F00103094C03
:10326000236000BF074B1B6803F00102491C12B129
:10327000054B9942F6D1034B1B6803F0010303B9D8
:10328000012010BD00900240FFFF040070B5002433
:10329000FFF788FBFFF746FE1848006808B900BF33
:1032A000FEE7042003F088FA012003F065F80446E5
:1032B0006420B4FBF0F1481EB0F1807F00D31BE026
:1032C000481E4FF0E022506150170F22002807DA05
:1032D00013071E0E0A4B00F00F052D1F5E5503E06D
:1032E00013071D0E074B1D5400BF00204FF0E022B6
:1032F00090610720106100BF70BD00000800002031
:1033000018ED00E000E400E0026822F440020260F0
:1033100002680A430260704700B50748006840F041
:1033200008000549086000F00BF80448806940F483
:1033300000500249886100BD0080024000900240B8
:1033400010B500220020094B9B6943F48013074C01
:10335000A36100BF054B9B6903F48011521C11B19E
:10336000034B9A42F6D301B9012010BD00900240F0
:10337000FFFF04002DE9FE4F0546884616464FF034
:103380000A09CA460A270024BB4600200290019081
:10339000009000BF64E004EB4400534A02EBC0001D
:1033A000017D0A2F02D109B9274657E0002955D0DF
:1033B00000BF00BFA5B104EB44024B4B03EBC202BC
:1033C0002868526890420BD13EB104EB44001A4683
:1033D00002EBC0008068B04202D12046BDE8FE8FFB
:1033E000012928D104EB44003F4A52F8300080B153
:1033F00004EB440002EBC000428A029882422DDBBB
:10340000A34604EB4400384A02EBC000408A029015
:1034100024E004EB4400344A02EBC000428A0198E5
:1034200082421BDBA14604EB44002F4A02EBC000A2
:10343000408A019012E0022910DB04EB44002A4A82
:1034400002EBC000428A0098824207DBA24604EBEE
:103450004400254A02EBC000408A0090601C04B280
:103460000A2C98DB08F0020020B90A2F05D108F0D9
:10347000010010B94FF0FF30B0E70A2F01DA3C46E7
:1034800017E0BAF10A0F02DA544600BF0CE0B9F1B6
:103490000A0F01DA4C4607E0BBF10A0F01DA5C467D
:1034A00002E04FF0FF3099E700BF00BF204600F078
:1034B0001DF800BF00BF00BF00BF35B104EB4401E1
:1034C000094A02EBC10128684860002004EB44016E
:1034D000054A02EBC101488204EB4400114601EBAE
:1034E000C0008660204679E7B846002010B5044643
:1034F00004EB44000C4951F8300060B104EB440186
:10350000094A52F8310002F040FD002004EB44016A
:10351000054A42F83100002004EB4401024A02EB64
:10352000C101087510BD0000B8460020F0B587B095
:1035300007460D4600BF0DB907B0F0BD00BF7C685F
:103540002088B0F5807F08D12079062805D16079E0
:10355000042802D16088082803D0384602F015FDFF
:10356000EAE7D4F80E000690A0690590686808B9EB
:10357000002607E005986968884201D1012000E033
:10358000002006460EB1012000E00220034604F1AF
:10359000080206A9284600F0C1FAE088B0F5807F4D
:1035A00003D0B0F5007F19D113E086B1022206AB3B
:1035B00004F10800291DCDE90232CDE9001005F122
:1035C0002A0302462631284600F0CAF900E000BF6F
:1035D00005E006A92846FDF752F900E000BF00BF4C
:1035E000384602F0D2FC00BFA6E700002DE9FE43FA
:1035F000044689461546A84600BF00BF00BF00BF6D
:1036000000BF00BF2146286800F07BFE08B1494F8B
:1036100085E0287800F0F000E02815D101208DF831
:10362000040000208DF805005E208DF80600687803
:1036300000F07F008DF80700A8788DF80800E87882
:103640008DF8090001AF69E02868A1680840D4E955
:103650000112114088420ED0288880B24FF6A9612D
:10366000884208D0E06810B104F10C0803E06FF064
:103670000300BDE8FE833048007800EB40002F498E
:1036800001EBC000007D02281BDB2B48007800EB1B
:10369000400001EBC0008068A04212D126490978A1
:1036A00001EB4101254A02EBC101D8F8000049684D
:1036B000884206D1204802784946204600F040F86A
:1036C000D7E7002622E006EB46001C4901EBC000CC
:1036D000007D022818DB06EB460001EBC000806885
:1036E000A04211D106EB4601144A02EBC101D8F801
:1036F00000004968884207D10F48067032464946A3
:10370000204600F01DF8B4E7701CC6B20A2EDADBC2
:103710004A464146204600F06FF8AAE700BF4FF442
:1037200000603B4604F12A0249460090204600F022
:10373000B7FA9EE7C4AD000848000020B846002054
:10374000F8B505460E46144600BF00BF04EB440022
:10375000284901EBC000007D022839D104EB440068
:1037600001EBC000408AB0F58E7F11DD04EB440010
:103770000A4602EBC000011D284600F03FF938BBA5
:10378000032004EB44011B4A02EBC10108751FE052
:1037900004EB4400174901EBC000408AB0F5877F75
:1037A00016DB04EB44000B4603EBC00000F10C02F7
:1037B00004EB440003EBC000011D284600F02AF989
:1037C00030B9032004EB44010A4A02EBC101087539
:1037D0004FF40060009004EB4400064901EBC00088
:1037E00000F10C0305F12A023146284600F058FA90
:1037F000F8BD0000B84600202DE9FE4F80460D467A
:10380000164608F12A0A4FF0FF300290002001907E
:103810004146286800F075FD38B9287800F0F000BE
:10382000E02802D00DB1286818B96FF00F00BDE88C
:10383000FE8F424601212846FFF79CFD8146B9F1E3
:10384000000F02DA4FFA89F0F1E700BF00BF09F07C
:10385000FF0404EB4400404901EBC000007D70B957
:103860000120019004EB44013B4A02EBC1010875C1
:1038700004EB4400114601EBC000C0F8088000BF13
:1038800000BF019800B93EB92946404600F0B6F89D
:1038900002900EB90298CAE700BF00BF04EB4400D3
:1038A0002D4901EBC000007D022811DB2B4804707C
:1038B0004FF40060009004EB440001EBC00000F105
:1038C0000C0352463146404600F0EAF9029041E0CE
:1038D00004EB4400204901EBC000007D012839D1F0
:1038E0004FF0000B374609E000BF00BF387B00F007
:1038F000400010B14FF0010B02E03F68002FF3D100
:1039000000BFBBF1000F07D032464FF420710E20EC
:1039100002F089FA074603E03746384602F0F8FB22
:10392000A7B104EB44000C4951F8300030B104EB6E
:103930004401094A52F8310002F027FB04EB44002D
:10394000054941F830700020029002E04FF0FF304E
:10395000029000BF02986AE7B846002048000020A5
:103960002DE9FC5F81460E4617469846DDE90CAB13
:103970000020019000BF00BF4FF420721C210E20D8
:1039800002F046F905461DB94FF0FF30BDE8FC9F37
:1039900000BF00BF6C680F9801F007FCE08000BF1B
:1039A00000BFD8F80000A060B8F80400A081DBF8E0
:1039B0000000C4F81200BBF80400E082DAF800004E
:1039C000C4F80E000E980068A0614FF4807020804B
:1039D00008206080062020710420607140F60600F7
:1039E0003B46324629460090484600F059F92846A1
:1039F00002F0CBFA00250198C8E7000070B5044634
:103A00000D46034A2946204600F004F870BD000028
:103A1000C4AD00087FB504460D4616460121074A8D
:103A2000201D04F12A038DE8250003913246194632
:103A30002046FFF795FF04B070BD0000CAAD000836
:103A400070B5002464E004EB4400334901EBC0008E
:103A5000057D002D5BD004EB440001EBC000408AE3
:103A6000401C04EB44012C4A02EBC101488204EBE8
:103A70004400114601EBC000408AB0F5967F0DDA94
:103A800004EB440001EBC000007D01280AD104EBE7
:103A9000440001EBC000408A052803DB2046FFF705
:103AA00025FD34E004EB44001B4901EBC000007D20
:103AB000032807D1042004EB4401174A02EBC1019B
:103AC000087524E004EB4400134901EBC000007DBD
:103AD000042807D1022004EB44010F4A02EBC10184
:103AE000087514E004EB44000B4901EBC000007DB5
:103AF00001280CD104EB44020B4603EBC202111D5A
:103B000004EB440203EBC2029068FFF777FF641CEA
:103B10000A2C98DB70BD0000B84600202DE9F84360
:103B200006460D461746984600BF00BF5DB128689F
:103B300048B13146286800F0E4FB20B9287800F04D
:103B4000F000E02803D16FF00F00BDE8F8833246A3
:103B500041462846FFF70EFC0446002C01DA60B20D
:103B6000F3E7022004EB44011B4A02EBC101087594
:103B700004EB4400114601EBC000866004EB4400F6
:103B800001EBC0003968C160B9880182002004EBF4
:103B9000440102EBC101488204EB4400114651F894
:103BA0003000B0B104EB440051F83090002004EB39
:103BB000440142F831004FF400603B4606F12A020E
:103BC00049460090304600F06BF8484602F0DDF9B7
:103BD00000BF0020B9E70000B84600202DE9F04101
:103BE00004460E464FF00E0860890E2800DC4FE0B8
:103BF000E07B18B996F83400401CE0736568AF8923
:103C0000287800F00100B0B12878012809D168783F
:103C100088B9A8785E280ED1607B40F010006073F0
:103C200009E006221D492846FCF763FB18B9607BB2
:103C300040F008006073082F03D0B7F5C16F22D1A0
:103C400010E096F8310000F0080000B920E041468D
:103C5000204602F066FA00B11AE03146204600F034
:103C600063FC11E096F8310000F0080000B90FE0A5
:103C70004146204602F055FA00B109E0314620469F
:103C8000FFF754FC00E003E000BF0020BDE8F08136
:103C9000204602F07AF90020F8E70000C4AD0008E1
:103CA0002DE9F04706460D4617469846DDF8209068
:103CB000484601F07AFA82460E21284601F06EFF4E
:103CC00000B115E06C68A4F80CA0D8F800002060E2
:103CD000B8F80400A0803868C4F80600B88860818D
:103CE00000BF00BF29463046B2699047BDE8F08763
:103CF0006FF00100FAE7000010B5044600BF00BFF6
:103D0000472084F832004421332001550448606183
:103D10000448A061204601F075F9002010BD0000A4
:103D2000ED350008F150000870B50446204601F05A
:103D3000AFF9064616B94FF0FF3070BD2146304648
:103D40002269904705461DB1304602F01EF9002653
:103D50002846F2E710B52D4B1B6883432B4C23609C
:103D6000231D1B688343241D2360231D1B6883437D
:103D7000241D2360231D1B688343241D236011B170
:103D800001290ED105E0214B1B6803431F4C236022
:103D900008E01E4B1B1D1B6803431C4C241D2360A5
:103DA00000E000BF00BF32B1012A11D0022A1CD0AE
:103DB000032A27D127E0154B08331B680343134C14
:103DC00008342360231D1B688343241D23601BE0EC
:103DD0000E4B08331B6883430C4C08342360231DAF
:103DE0001B680343241D23600EE0084B08331B6847
:103DF0000343064C08342360231D1B680343241D22
:103E0000236001E000BF00BF00BF10BD003C0140C7
:103E10000149086070470000143C01400146044815
:103E20000068084008B1012070470020FCE700004E
:103E3000143C014070B504460D46E1B2054806F059
:103E400097FE00BF0721034806F009FF0028F9D0BC
:103E5000204670BD0010014070B50546002427487B
:103E6000854200D100BF4FF4406002F017FB2449A7
:103E700031F8140002F012FB224850F824200721E8
:103E8000214800F085F8214850F8242007211E48D9
:103E900000F07EF81B4850F82430012202211A4815
:103EA00000F0A5F8174850F82430022200211648E7
:103EB00000F0C4F8154850F82430012202211248BD
:103EC00000F095F8114850F82430022200210E48E5
:103ED00000F0B4F8284606F04FFE4FF4E1312846D2
:103EE00006F0D2FD0421284606F0C8FE0821284627
:103EF00006F0CCFE284606F0ADFE70BD0010014075
:103F000010010020140100200000024018010020D0
:103F100070B504460D46174931F8140002F0BEFA98
:103F200041F20E1002F0BAFA134951F82430134945
:103F300051F824000022114600F059F8012D17D144
:103F40000F49085D0022022101F0BCFD0D4A115D00
:103F50000D4A105D02F058FB0C4951F82400012273
:103F60000021FFF7F7FE094951F82400FFF750FF41
:103F700070BD00003C010020300100202401002021
:103F80005601002053010020500100204401002070
:103F9000F0B503461C6A5D6A00200DE001268640EC
:103FA00016403EB187000F26BE40B443860001FA9A
:103FB00006F63443461CB0B20828EFD3082011E0BF
:103FC0000126864016405EB1A0F10806B7000F2614
:103FD000BE40B543A0F10806B60001FA06F6354327
:103FE000461CB0B21028EBD31C625D62F0BDF0B588
:103FF00004460D4616462168E268002019E00127B4
:1040000087401F409FB14FEA400C032707FA0CF787
:10401000B943470005FA07F739434FEA400C032735
:1040200007FA0CF7BA43470006FA07F73A43471C6A
:10403000B8B21028E3D32160E260F0BDF0B50C46C1
:104040001546012C03D146681E43466002E04668CF
:104050009E434660826800210DE001268E401E408E
:104060003EB14F000326BE40B2434E0005FA06F6AD
:1040700032434E1CB1B21029EFD38260F0BD70B54F
:1040800005460C4622460321284600F0CBF870BDB9
:104090002DE9FF5F05468A466148806803900398D2
:1040A00000780007860E142E00DAAFE06889042835
:1040B00000D2ABE06868047814B1082C7ED100E02F
:1040C0009FE0DFF85C9109F114095548007D00F08C
:1040D000F000E02800D19DE0514A1168506900F0DD
:1040E00010F900B196E02889082800D28EE0284611
:1040F00000F0DCF820B1284601F047FFBDE8FF9F43
:1041000006F10E01284601F049FD90B3288930449C
:104110001FFA80FB2889584500DD7BE04FF42072B0
:1041200059460E2001F074FD074607B972E07989FF
:1041300006F10800814203D2384601F026FF69E00B
:10414000324678680399FCF79BF83146384601F00F
:10415000E8FF28B100BF00BF384601F016FF59E064
:104160002946384601F077FE20B1384601F00DFFB0
:1041700050E004E0284601F008FF3D4608E006F163
:104180000E01284601F0CDFF10B100BF00BF41E095
:10419000D5F804803146284601F000FDF0B96F687B
:1041A000D9F80000F8601E4800693861002088F8DE
:1041B0000000A8F80200FF20387200E00FE00020A5
:1041C000788101200021FF230A46CDE9010A0091F0
:1041D0004946284600F0A6FA834600BF11E0032CAA
:1041E0000ED00B2C0CD00C2C0AD0042C08D0052C93
:1041F00006D00D2C04D00E2C02D0112C00D000BF04
:1042000000BF00BF284601F0C0FE77E7284601F056
:10421000BCFE73E7284601F0B8FE00BF6EE7000061
:10422000284C00202DE9FF470746884691464FF469
:1042300020722421222001F0EBFC05460DB9BDE8D7
:10424000FF8700BF00BFD7F804A06C6884F8008027
:1042500084F801900020A080E08079686A6802F10B
:1042600008001C22FCF70CF8DAF80C00039003A8F5
:1042700000F0E2FB06465EB10020608001200021D4
:10428000FF2303AACDE901060091284600F04AFA6F
:10429000284601F07AFE00BFD1E770B505460C460E
:1042A00022460B212846FFF7BDFF70BDF0B506463C
:1042B00000270024354619E06989686800F0EAFFA4
:1042C0000444A0B200EB1444688900EBD07149109B
:1042D000A0EB410149B10FB9012000E000200746E1
:1042E000E0B2C4F3072141EA00242D68002DE3D198
:1042F00027B1E0B2C4F3072141EA0024E04380B2D1
:10430000F0BD18B502460092D04300B10AB90120B1
:1043100018BD91F8310000F0020008B90020F7E75D
:104320004868904201D10020F2E700988B6818405D
:10433000D1E901342340984208D1886822EA00007C
:104340008C68E343984201D10120E1E70020DFE7D8
:104350002DE9F74F8CB004460F464FF00008398D19
:10436000A1F11400C11700EB5171C1F3CF0A142061
:10437000059060680990DDF8249099F8000000F03D
:104380000F001421B1EB800F04D06FF005000FB0C7
:10439000BDE8F08F00BF6089142802DA6FF00500D5
:1043A000F5E700BFB9F8060000F0FFFE049004989E
:1043B000C0F30C000790049800F40050039020898B
:1043C00014381FFA80FBA4E04FF6FF7000EACA0021
:1043D000584501DD584603E04FF6FF7000EACA0079
:1043E00008904FF4207214210E2001F011FC0546B4
:1043F00005B994E000BF00BF142268680999FBF773
:104400003FFFD5F8049008980A9047E06189059825
:10441000081A80B2029000BF00BF02990A98884231
:1044200001DA0A9800E002988046B8F1000F03D143
:1044300000200590246831E000F00EFC06461EB90D
:10444000284601F0A2FD6AE06168059808443346F9
:1044500041224146CDE90008002001F08BFC0B9081
:104460000B9830B9304600F0FCFB284601F08DFD7A
:1044700055E0204601F04CFE74612A483061284620
:104480000B9901F0A0FC0A98A0EB080080B20A90FA
:104490000A9810B100200590246800BF0A980028EF
:1044A000B4D10598404480B20590388D14385845F1
:1044B00001DB012000E0002006900798C0F30C000B
:1044C0000490069808B1039818B1049840F400507D
:1044D0000490049800F069FEA9F8060008991431C8
:1044E00088B200F062FEA9F802000020A9F80A00D4
:1044F0007B69294638460E9A9847284601F045FDC3
:104500000898ABEB00001FFA80FB0798504480B27C
:104510000790BBF1000F7FF457AF002037E74FF053
:10452000FF3034E7E54F00082DE9F04707460E4617
:104530004FF0010A7D6828780421B1EB201F05D0D7
:10454000384601F022FD0020BDE8F08728780007FA
:104550004FEA9068688800F028FE8146398949450D
:1045600003DD4946384601F093FD7889404505DB77
:104570003889484502DBB8F1140F04DA384601F0F7
:1045800004FD0020E0E7286957494861E8680861B0
:104590000846007D00F0F000E0280AD196F83100CE
:1045A00000F0010018B1706808B134461CE0002426
:1045B0001AE0304600F09CF808B1344614E00024BC
:1045C0004948007D7F280FD04848046809E0B4427C
:1045D00000D105E0204600F08BF800B103E000BFF9
:1045E0002468002CF3D100BF64B9687A112809D17E
:1045F00005EB08004188B1F5884F02D134464FF0F1
:10460000000A00BFBAF1000F13D03748006980B12B
:10461000354908693146FFF774FE28B93248007CF5
:1046200000F0F000E02804D1384601F0AEFC002094
:104630008AE724B9384601F0A8FC002084E7E8881E
:104640004FF63F71084038B1384600F0F1F80746A0
:104650000FB9002078E77D682348046046608560D4
:1046600028780007800E204988814146384601F0AD
:1046700058FD687A01280DD0062806D011280ED1E1
:104680003146384605F06AFD22E03146384602F0F0
:1046900019FE1DE031463846FFF7FAFC18E01249D2
:1046A00048692146FFF72DFE70B90F48007D00F0E4
:1046B000F000E02808D00FFA88F1384601F0AAFC93
:1046C00002213846FFF7DBFC384601F05EFC00BFF4
:1046D00000BF002004490860486088608881086144
:1046E000486100BF30E70000284C0020EC000020AB
:1046F00010B5044694F8310000F0010070B1606814
:1047000060B1074840696168884205D0044948693A
:104710002146FFF7F6FD08B1012010BD0020FCE79F
:10472000284C00202DE9FE4F07460C4615469846BA
:10473000DDE90C9A0E9EA34625B10CB1206808B99C
:1047400006F1040B43462A4659463846CDE9009AFD
:10475000029600F003F8BDE8FE8F00002DE9F84F47
:1047600005460F4690469A46DDF828B00C9E00BFDD
:1047700000BFB8F1000F3AD04FF0140914212846B9
:1047800001F00CFA18B16FF00100BDE8F88F6C6809
:1047900000BF00BF84F808A00B986072D8F8000032
:1047A000206148464FEAE97109EB9171C1F3870135
:1047B00041F04001217084F801B0288900F0F5FC37
:1047C00060800020E0801848008800F0EEFCA080A7
:1047D00015480088401C144908801FB91348006818
:1047E000E06001E03868E0600020608109E06889ED
:1047F000142802DA6FF00100C7E76C6820690090A6
:10480000E846308D48B12889318D884205DD424621
:1048100031462846FFF79CFDB7E742462946304619
:1048200073699847B1E700004A000020A8AC00086F
:104830002DE9F14F84B004984568287800F00F0006
:104840001421B1EB800F00D0EDE0E88800F0ADFC62
:10485000C0F30C004FF6FF7101EAC00A688800F04F
:10486000A4FC074628780007810E02910299B942FC
:1048700000DDD8E00298381A87B2049801F0CAFA2D
:1048800006466B480188881914280ADD31462846F7
:1048900000F04AFB20B1664800883044142800DD4F
:1048A000C1E06448046811E06069E968884209D1A0
:1048B000A0692969884205D1A089A988884201D1C7
:1048C000012000E0002000B102E02468002CEBD1C0
:1048D00000BF34B93146284600F0ACFA044694B91A
:1048E000A1E0E88800F061FCC0F30C0058B9E08951
:1048F00000F05BFCC0F30C0028B11422294604F13F
:104900000800FBF7BDFCE888012121EA5010019066
:10491000019850B10AEB070188B2504503DB4FF60E
:10492000EB71884200DD73E000BF2046019A0499D4
:1049300000F0A0F983460BF1010000B968E03C48A3
:10494000008830443A490880019840B10AEB0701D9
:1049500088B2A083A17F41F00101A17700BFBBF124
:10496000010F53D1A08B143080B200906068406872
:10497000D0F8009060684568142204F108012846C8
:10498000FBF77EFC009800F010FC68800020E880B7
:104990006881606804900DE0D9F804000390142148
:1049A000484601F0BEFB4946049801F00CFA039812
:1049B000D0F80090B9F1000FEED11E480068844293
:1049C00002D14FF000080EE01A48D0F8008006E04F
:1049D000D8F80000A04200D104E0D8F80080B8F177
:1049E000000FF5D100BF4146204600F00DFA0498B3
:1049F00001F010FA064600BF00BF0D480088801B7A
:104A00000B490880049805B0BDE8F08F0020FAE754
:104A100000BF00BF606828B900BF00BF002120466A
:104A200000F0F2F900BF049801F0AFFA0020EAE7C5
:104A3000500000204C00002010B5024621480168BB
:104A400021E091F8310000F00100D8B191F8310077
:104A5000C0F38000B0B14868A0B110688B681840FE
:104A6000D1E901342340984201D1084610BD91F8A4
:104A7000310000F0020028B91068CB68984201D1DB
:104A80000846F3E709680029DBD10F480068A0B1A8
:104A90000D48006890F8310000F0010068B10A4844
:104AA000006890F83100C0F3800030B1064800681B
:104AB000406810B110787F2801D10020D6E7024865
:104AC0000068D3E7EC000020F00000202DE9FF474C
:104AD000064688466F46347800BFFBF7B5FB006892
:104AE000005D202803D0002004B0BDE8F087002539
:104AF0004FF00A09302C0ED1701C06460478782C31
:104B000001D0582C05D14FF01009701C06460478CE
:104B100001E04FF0080900BFFBF796FB0068005D5D
:104B2000202807D1A4F1300005FB0905701C0646BA
:104B30000478F1E7B9F1100F1CD1FBF785FB006891
:104B400010F804A08AEA8A0000F0800090B1FBF718
:104B50007BFB0068005D00F0080008B1612100E007
:104B6000412104F10A00401A40EA0515701C06466E
:104B70000478D1E700BF00BF2E2C09D103A88742DB
:104B800001D30020B0E720C7701C06460478A4E7D4
:104B900000BF00BF44B1FBF757FB0068005D00F0A9
:104BA000010008B900209FE76846381A012101EB8F
:104BB000A000052842D2DFE800F003050614280013
:104BC000002091E73DE0B5F1807F01D300208BE725
:104BD0000098FF2801D9002086E7009845EA006583
:104BE0002FE0B5F5803F01D300207DE70098FF2836
:104BF00002D80198FF2801D9002075E70098000627
:104C0000019940EA014005431BE0FF2D01D9002036
:104C10006AE70098FF2805D80198FF2802D8029873
:104C2000FF2801D900205FE700980006019940EABB
:104C30000140029940EA0120054302E000BF00BFA5
:104C400000BF00BFB8F1000F04D0284600F0A0FA62
:104C5000C8F80000012047E710B5052000F090FDDE
:104C600010BD10B5044600BF00BF2146052000F06E
:104C70004DFD10BD2DE9F74F84B00746884600254D
:104C800001200190D8F8040002900299488800F0B1
:104C90008CFA8346029800780007800E03900398F0
:104CA000584503DD681E07B0BDE8F08F0398ABEBF5
:104CB00000001FFA80FB0299C88800F076FAC0F362
:104CC0000C004FF6FF7101EAC00A00BF00BFD8F820
:104CD000044000202060A4F804A00AEB0B00E08050
:104CE000E088504502DA4FF0FF30DCE7D7F8049057
:104CF0003EE0D9F80460A088B188884220DAC4F880
:104D000000909DB1A088E988884203DBE088B188E3
:104D1000884202DD4FF0FF30C5E7C5F80080E88823
:104D2000A18888420BD00020019008E0E088B1887B
:104D3000884202DD4FF0FF30B5E7C7F804801AE083
:104D4000A088B188884202D14FF0FF30ABE7A0883D
:104D5000F188884202DA4FF0FF30A4E72DB1E888ED
:104D6000B188884201D000200190D6F800903546E5
:104D7000B9F1000FBDD100BFB9F1000F0FD155B18E
:104D800000BF00BFC5F80080E888A188884206D02F
:104D90000020019003E000BF00BFC7F80480069820
:104DA00018B9B87F00F0010060B3019820B37868AB
:104DB00018B178684068808810B1002001901BE02D
:104DC0002546D4F800900BE0D9F80440E888A18883
:104DD000884202D00020019005E02546D4F80090DA
:104DE000B9F1000FF0D100BF019828B100BF00BF9A
:104DF00000BF00BF00BF00BF019808B1012052E70B
:104E0000002050E700204EE770B504460D460848E4
:104E10000068A04203D106492068086003E000BF93
:104E200000BF206828602146042000F06FFC70BDA0
:104E30004C00002070B505460E46042000F0A0FC92
:104E4000044664B93146284600F06EF8B04203DBF0
:104E5000042000F095FC04460CB9002070BD202110
:104E60002046FBF734FA0F20E07706480068206000
:104E7000044804601422294604F10800FBF700FAF4
:104E80002046EBE74C0000202DE9F0470446894618
:104E9000002600BF00BFB9F1000F01D000BF00BF66
:104EA0006068D0F80480B8F80400C0B96568D8F824
:104EB00000006060142204F108016868FBF7E0F963
:104EC00001212846FFF7E9F9284600F0A3FF07462D
:104ED00000BF00BFF01986B2284601F056F8656899
:104EE00010E0D5F80480AA46D8F80050504600F0EB
:104EF00091FF074600BF00BFF01986B2504601F08F
:104F000044F800BF002DECD149462046FFF77CFF56
:104F100000BF00BF03480088801B0249088030465C
:104F2000BDE8F087500000202DE9F84F054689467E
:104F3000002700BF0026B2460020009083461B4891
:104F4000046821E06069E968884207D1A06929699D
:104F5000884203D1A089A988884201D0012000E0BD
:104F6000002068B10BF1010B1EB92646CDF800A058
:104F700006E0E07FF17F884202DC2646CDF800A003
:104F8000206800B1A2462468002CDBD12EB1304647
:104F90000099FFF779FF804647444F4502DABBF19D
:104FA000010FC7DC3846BDE8F88F00004C00002038
:104FB00070B500250A4804680FE0E07F002805DD91
:104FC000E07F401EE0772546246806E026462468F8
:104FD00029463046FFF758FF00BF002CEDD170BDC9
:104FE0004C00002070B505462C4600BF00BF00BF36
:104FF00000BF606910B1606900F0C7FF2046FFF78D
:1050000030FE70BD70B50446062084F830000220E2
:1050100084F82A000A212B2001550F212C2001554C
:105020000E212D2001550D212E20015506212F2066
:10503000015504F12A010020FDF75CFF40F2DC502D
:1050400020850E2084F83100C004FDF75FFB4FF48B
:105050006020FDF75BFB002605E00B4901EB061025
:10506000FEF73CF8761C052EF7D3002507E007492C
:1050700001EB05104FF44001FEF746F96D1C052DBC
:10508000F5D3FDF7A7FB70BD200A0020700A0020B1
:105090002DE9F047814600260025022113480068CB
:1050A000FDF702FB87B2052110480068FDF7FCFA06
:1050B00080464FF4C1723946002000F0A9FD054634
:1050C00065B12C4608E0628908EB06016068FBF7D1
:1050D000D7F8608906442468002CF4D100210846E2
:1050E000FDF77EFB2846BDE8F08700002800002081
:1050F0002DE9F04180460F46002500BF0F480068AB
:10510000006800F000400028F8D101210B48006839
:10511000FDF7CAFA06463C4607E0628970196168E5
:10512000FBF7AEF8608905442468002CF5D12946C8
:105130000020FDF7D1FB0020BDE8F0812400002015
:105140002DE9F041044625466868804701F0DCF906
:1051500006460D49286809684718B81BB0F1004F8A
:1051600001D3012000E0002030B1296888192246CF
:10517000064901F0E1F904E022460449384601F00D
:10518000DBF9BDE8F0810000DC000020415100089F
:105190000146080601F47F4240EA022001F47F0242
:1051A00040EA122040EA1160704701460806000CF0
:1051B00040EA1120704710B5002400BF00BF00BFB7
:1051C00000BF00F02DF900F0B5FA00F0D9FB04F0B3
:1051D000B9FF02F06BF8FCF7B3FF01F0F5F910BD71
:1051E0007047000001B50C4900980968401AFA2878
:1051F00004D309490098086004F0CCFB07490098E3
:105200000968401AB0F57A7F04D304490098086011
:10521000FEF716FC08BD00000C0000201000002066
:1052200010B50248FEF780FD10BD000064010020AB
:1052300000B587B000F0F4F800F07CFA0F48069053
:105240004FF6FF7005900E4804900E480E4900225C
:1052500004ABCDE90021029005AA06A90B4800F095
:10526000A1FA0A4800F0E2FB0949084800F0E4FB13
:10527000064800F0E4FB07B000BD0000C0A80F37EF
:10528000C0A81001DD3B0008F93C000864010020C3
:10529000E1510008F8B505460A462B46002000906B
:1052A000002103F0010636B1002A04DD13F8010BDA
:1052B0008DF80100521E1C4603E034F8027B39448D
:1052C000921E012AF9DC002A02DD20788DF8000008
:1052D000BDF80000014488B200EB114188B200EB38
:1052E000114126B1C8B2C1F3072747EA002188B2AD
:1052F000F8BDF0B503460C4600BF13F8011B14F8C7
:10530000015BA9420FD041F02006612E08DB7A2E06
:1053100006DC45F02007BE4201D00120F0BD01E0CF
:105320000120FBE700BF521E0AB10029E5D1002091
:10533000F4E700000C48FEF78FFD01210846FEF758
:10534000E7FDFDF7A3FFFFF736FFFFF771FF0AE068
:1053500005F02EF9FDF730FF08B1FFF761FF0348B4
:105360000068FFF73FFFF3E7001001400000002056
:105370002DE9F04106460F4606FB07F4A0B2A04215
:1053800002D00020BDE8F081A0B200F0A3F80546ED
:105390001DB121462846FAF79AFF2846F2E7000099
:1053A00070B5054605B970BD05F0030020B100BF1A
:1053B00000BF00BF00BFF6E7A5F10804154800686C
:1053C000844205D305F10C0013490968884204D9C9
:1053D00000BF00BF00BF00BFE5E7207920B900BFD4
:1053E00000BF00BF00BFDEE7204600F047F820B94D
:1053F00000BF00BF00BF00BFD5E7002020710748F5
:105400000068844201D205480460204600F05EFF37
:1054100000BFC8E760000020640000206800002092
:1054200010B500BF00BF114820F00300104908600C
:10543000084604684FF4A04020800020608020715E
:105440004FF4A04000F090FF0A490860012009686D
:1054500008714FF4A04007490968088005490968A8
:105460004880034800680449086010BD434C002090
:105470006000002064000020680000202DE9F04159
:105480000446204600F0AAF80546208800F06CFF8C
:105490000646608800F068FF07462088B0F5A04FF8
:1054A00010D86088B0F5A04F0CD86088A84202D010
:1054B0003888A84206D106480068864205D0708820
:1054C000A84202D00020BDE8F0810120FBE70000E7
:1054D000640000202DE9F0478046B8F1000F02D1AA
:1054E0000020BDE8F08708F1030020F0030085B23A
:1054F0000C2D00D20C25B5F5A04F01D8454501DA99
:105500000020EEE73348006800F068F806465BE0EC
:10551000304600F029FF04462079002850D1218828
:1055200006F10800081AA8424AD3218806F10800AB
:10553000091A05F1140081421DD306F10800284420
:105540001FFA80F900BF00BF484600F00DFF074674
:1055500000213971218839807E80A4F800900120D3
:1055600020713888B0F5A04F07D0388800F0FCFED5
:10557000A0F8029001E001202071164800688442E2
:1055800015D11448D0F800A004E0BAF8000000F0EB
:10559000EBFE82469AF8040018B10F480068824575
:1055A000F3D10C48C0F800A000BF00BF00BF00BF8F
:1055B00000BF00BF00BF00BF00BF04F1080090E7BC
:1055C000304600F0D1FE0688C5F5A040B0429FD815
:1055D000002086E7680000206400002001460248A1
:1055E0000088081A80B27047600000202DE9F84F4B
:1055F00081468B460BF1030020F0030085B20C2D91
:1056000000D20C25B5F5A04F01D85D4502DA002087
:10561000BDE8F88F00BF00BF39480068814503D35B
:1056200038480068814503D300BF00BF4846EFE714
:10563000A9F108084046FFF7D1FF0646B8F8001068
:10564000881B08381FFA80FA00BF00BF554501DDEE
:105650000020DDE7554501D14846D9E7B8F80000FC
:1056600000F082FE0446207920BB00BF00BF2088E6
:10567000009006F10800284487B223480068A04241
:1056800004D1384600F070FE1F490860384600F02B
:105690006BFE044600202071009820806680A8F8E8
:1056A00000702088B0F5A04F03D0208800F05CFE89
:1056B000478023E005F1140050451FD806F108008B
:1056C000284487B200BF00BF384600F04DFE0446B4
:1056D0000D480068844201D20B480460002020710C
:1056E000B8F8000020806680A8F800702088B0F527
:1056F000A04F03D0208800F037FE4780484687E758
:1057000060000020640000206800002070B504469E
:105710000D4600BF092C00DB70BD00BF05B9FBE7DB
:10572000034951F824002946FCF745FF00BFF3E781
:105730001CAD000810B5002406E0054951F824000E
:1057400000F008F8601C84B2092CF6D310BD0000EC
:105750001CAD000810B50023846823604368DB1C7F
:1057600023F00301002207E083681B680B60836855
:10577000196003881944521C43889342F4DC10BD1D
:1057800070B5044600BF092C01DB002070BD00BFCE
:10579000034951F82400FCF718FF05462846F5E7B1
:1057A0001CAD00082DE9F04704460D4616461F467D
:1057B000DDE9098ADDF8209000BF14B90020BDE8BA
:1057C000F08700BF00BFB8F1000F01D10020F6E75D
:1057D00000BF05B92D4D06B92C4E07B92B4F00203F
:1057E0006060A060E0602A4860610020208584F845
:1057F00031006062E061C4F820902648007884F8A7
:105800003400C4F810A03B4632462946204600F03A
:10581000DDF82046C04708B10020D0E700BF94F86B
:105820003420FF2A02D1002284F8342000211A4AB1
:10583000106811E000BF00BF491C00BF00BF90F816
:10584000342094F834309A4205D194F83420521C14
:1058500084F8342002E000680028EBD100BF002863
:10586000DDD194F83400FE2803D1002009490870E6
:1058700004E094F83400401C0649087006480068AB
:10588000206005480460204699E70000A8AC0008A5
:10589000C3590008F4000020EC00002070B5044655
:1058A0000D462946204602F043F92946204604F0D9
:1058B0003FFD70BD10B503460868DC68A04201D109
:1058C000012000E0002030B909B9002000E008689C
:1058D000D860012010BD0020FCE7F8B504460D4655
:1058E000164600BF00BF00BF00BF2868616888423D
:1058F00001D1012000E00020C8B92868009060684C
:10590000306069463046FFF7C9FF0DB9002000E05E
:10591000286860600121204600F033F800BFE0698C
:1059200010B12046E169884700BF0120F8BD002082
:10593000FCE710B5034608689C68A04201D101202D
:1059400000E0002030B909B9002000E00868986044
:10595000012010BD0020FCE702466AB1074801683B
:1059600008E091F83400401CC0B2904201D10846D2
:10597000704709680029F4D10020F9E7EC00002005
:10598000704770B504460D4600BF00BF94F8310063
:1059900000F0040020B194F8310000F0010000B9DB
:1059A00070BD05F0010050B1606840B194F831005D
:1059B00000F0080018B1211D2046FEF71FF800BFB7
:1059C000EEE703466FF00B00704700002DE9F84F3B
:1059D00080460C4615461E464FF00009CA4604B9DB
:1059E000114C05B9104D06B90F4E0CB1206808B91D
:1059F000012000E00020074627B16A4621464046C4
:105A0000FFF76BFF4A4629464046FFF792FF524692
:105A100031464046FFF74EFF27B96A4621464046C9
:105A2000FFF75BFFBDE8F88FA8AC000801490860EC
:105A300070470000F000002000B1C161704710B550
:105A4000044600BF04B910BD00BF94F8310000F057
:105A5000010090B900BF94F8310040F0010084F8D3
:105A6000310000BF00BFE06910B12046E1698847FE
:105A700000BF03212046FFF784FF00BFE3E70000DB
:105A800070B505460C4616460B4800210160012002
:105A90000A4908702068000E074908702068000C49
:105AA00048702088000A88702078C87004F058FC7C
:105AB0000349086070BD0000180000201C00002091
:105AC000200000202DE9F04103460D461646002433
:105AD0000027A0462A48006800F4E060B0F5E06FB7
